:100000000C94AC020C94F0020C940B030C94F002D0
:100010000C94F0020C94F0020C94F0020C946B0B14
:100020000C94F0020C94F0020C949C240C94F002BA
:100030000C94F0020C94F0020C94F0020C94F00278
:100040000C94F0020C94F0020C94F0020C94F00268
:100050000C94F002F405FB05010611062B060906B7
:100060000C068B078D078F07910793079507970756
:100070009907A307A507A707A907AB07AD07AF0710
:10008000B107B307BF07EB1002111D1115122A1398
:1000900061129A12E012C41AC41AF61AF61A341B24
:1000A000521BB81CB81C941BB81C371C371CA81C4E
:1000B000B81CB81CB11C441C441C441C441C441CEB
:1000C000441C441C441C441C441C441C441C441C30
:1000D000441C441C441C551C631C6A1C711C7B1C66
:1000E000491D491D5B1D5B1D521D5B1D5B1D5B1D7D
:1000F000491D491D571D5B1D5B1D571D076342367A
:10010000B79BD8A71A39685618AEBAAB558C1D3CA8
:10011000B7CC5763BD6DEDFD753EF6177231BF006C
:100120000000803F08000000BE922449123EABAAA6
:10013000AA2ABECDCCCC4C3E00000080BEABAAAA01
:10014000AA3E00000000BF000000803F0000000049
:1001500000084178D3BB4387D1133D190E3CC3BD82
:100160004282AD2B3E68EC8276BED98FE1A93E4C2F
:1001700080EFFFBE01C4FF7F3F00000000002B00A6
:1001800014001A000800150017001C0018000C00CD
:10019000120013002A0029000400160007000900BD
:1001A0000A000B000D000E000F0033003400D65C77
:1001B0001D001B000600190005001100100036008C
:1001C000370038002800E000E2000100E30003519E
:1001D0002C002C0004515000510052004F002B0005
:1001E00014001A00090013000A000D000F00180087
:1001F0001C0033002A002900040015001600170017
:1002000007000B00110008000C0012003400D65C3F
:100210001D001B000600190005000E00100036002E
:10022000370038002800E000E2000100E30003513D
:100230002C002C0004515000510052004F002B00A4
:1002400034003600370013001C0009000A000600C5
:1002500015000F002A0029000400120008001800F1
:100260000C0007000B001700110016003800D65CC8
:10027000330014000D000E001B00050010001A00D2
:1002800019001D002800E000E2000100E300035116
:100290002C002C0004515000510052004F00350238
:1002A0001E021F0220022102220223022402250232
:1002B000260227024C004C00010001000100010051
:1002C000010001002D022E022F02300231024900EE
:1002D000010001000100010001000100320264027E
:1002E0004A004D0001004902050101000100010022
:1002F000010001000100AB00AA00A900AE0035001A
:100300001E001F00200021002200230024002500E1
:10031000260027002A004C00010001000100010016
:10032000010001002D002E002F0030003100490097
:100330000100010001000100010001003200640021
:100340004B004E00010049020100010001000100C4
:10035000010001000100AB00AA00A900AE00E35CAF
:10036000E25C010001000100010001004C002400DA
:10037000250026002A000280010001000100010082
:10038000010001000100210022002300370000804D
:1003900001000100010001000100010027001E0012
:1003A0001F0020002800E15C0100010001000100A5
:1003B00001000100010001000100010001003A00FC
:1003C0003B003C003D003E003F0040004100420039
:1003D000430044004500DD5C0100295C1D5C135CAA
:1003E0000100010001000100010001000000DE5CCD
:1003F000010001001E5C0A5C010001000100010017
:10040000010001000000DF5CE05C01000100010070
:1004100001000100010001000100015C005C3D20C1
:1004200000002E2E00000DF4010009023B00020125
:1004300000803209040000010301010009210101CB
:1004400000012240000705810308000109040100A2
:1004500001030000000921010100012284000705B9
:10046000830308000105010902A10185010901A119
:10047000000509190129051500250175019505815A
:1004800002750395018103050109300931158125A4
:100490007F75089502810609381581257F3500454D
:1004A00000750895018106050C0A38021581257F23
:1004B000750895018106C0C005010980A10185026A
:1004C000150126B700190129B7751095018100C0E3
:1004D000050C0901A10185031501269C0219012AB9
:1004E0009C02751095018100C005010906A10175E6
:1004F000019508050719E029E715002501810295F6
:1005000001750881039505750105081901290591F3
:100510000295017503910395067508150026FF00E5
:100520000507190029FF8100C01201100100000019
:1005300008EDFE61610002010200010E0350006C33
:100540000061006E0063006B000A034F004C004B1B
:10055000004200040309040011241FBECFE5D8E0C7
:10056000DEBFCDBF04B603FE24C080914F0790913B
:100570005007A0915107B09152078730904BA74088
:10058000B04BB9F410924F071092500710925107D8
:100590001092520714BE84B7877F84BF0FB6F894B9
:1005A000A89581B5886181BD11BC0FBEE0E0F8E37C
:1005B000099515E0A0E6B0E0E6E8F2E602C0059095
:1005C0000D92A834B107D9F727E0A8E4B5E001C03F
:1005D0001D92AF34B207E1F70E9417290C94413104
:1005E0000C940000A82FB92F80E090E041E050EA81
:1005F000609530E009C02D9182279795879510F07E
:1006000084279527305EC8F36F5FA8F30895EADF6B
:100610008D939D930895CF93CFB7CF93DF93C395D9
:10062000839BE9F7839B10C0839B0EC0839B0CC008
:10063000839B0AC0839B08C0839B06C0C09126078A
:10064000C395C09326078BC06F93C0912507DD2704
:10065000C35DD84F2F9365E5839B03C02F916F91A6
:10066000E1CF0F931F934F9320E040E15F9300B3DE
:100670000C7003FB27F93F9350E03BE039C01C703E
:1006800040642F77012F5F5F1EC0406810B31C705D
:100690002F7752501FC0406400B32F770C70D1F1F8
:1006A0005F5F00C023C0406210B32F771C7091F1D0
:1006B0005F5F00C025C00C701027515012F45D5FC1
:1006C0000000115027952C3F10B3C8F61C7001276D
:1006D000015027952C3FC8F64227499300B30C7070
:1006E00010274F73115027952C3FA8F64695469535
:1006F00010B31C7079F00127015027952C3F98F614
:100700006B5A60F3315000B3B0F600C010E81ABF66
:10071000002719C03B503195C31BD04010E81ABFC9
:100720000881033C09F10B34F9F02091230719816A
:10073000110F1213EDCF4A81441F093651F10D32CA
:1007400011F0013E29F700932B073F915F914F91E4
:100750001F910F912F916F91CAB7C7FD60CFDF91A5
:10076000CF91CFBFCF91189520912B07222369F30A
:10077000109129071123E9F53430EAF13093290764
:1007800020932407109125073BE0311B3093250768
:1007900032C000912907013064F50AE54F7049F431
:1007A0003091B50434FD28C00093B504CCE0D7E007
:1007B00027C0433049F03091170734FD1DC0009326
:1007C0001707C8E1D7E01CC03091430734FD14C0BF
:1007D00000934307C4E4D7E013C0052710E000C02E
:1007E000000002BB1AC0052710E0221F1DC010E048
:1007F00021C04AE502C032ED432FC4E1D0E032E02F
:1008000011B31C60939A02B311BB5CE020E865E36E
:1008100020FF052702BB279517951C3FF0F666952C
:10082000B8F7B1F720FF052702BB279517951C3FA6
:10083000D0F62795179517FF052700001C3F02BB30
:10084000B0F629913A9519F7037F10912A07110FF5
:10085000C651D04002BB11F01093230710E81ABF15
:10086000086011B3137F402F437F54E05A95F1F78E
:1008700002BB11BB42BB69CF80E884BF84BF81B398
:100880008C7A81BB82B3836582BB8AB3806F8ABB5B
:100890008BB3806F8BBB8F9884B3837084BB8AB318
:1008A000807F8ABBB898979A85B38C6F85BB8BB3D2
:1008B0008F608BBBC09AA8E5B5E011961C921E9282
:1008C000E0E5F5E01182108213961C921E921297B9
:1008D0001382128215961C921E921497158214820E
:1008E00017961C921E921697178216820C94D206A7
:1008F000EF92FF920F931F93CF9390B3917081E08B
:10090000982790934C0590B3969591709827909363
:100910004D0590B392959170982790934E0590B3A2
:1009200095FB992790F9892780934F05E8E4EE2EEF
:10093000E5E0FE2E0CE415E0C0E0F70181917F01B7
:10094000F8016081861741F08C2F0E945B06F80148
:1009500060818C2F0E94A905CF5F0F5F1F4FC430AD
:1009600061F780914C0590914D05909349058093D6
:100970004805E0E5F5E040E055E0423041F0433025
:1009800041F0413011F0DF9805C0DE9803C0DD98DA
:1009900001C0DC988AE18A95F1F700C020B3022EED
:1009A000000C330B20953095832F881F8827881FD4
:1009B00090E09A9B03C020E030E002C022E030E0EB
:1009C000822B932B9B9B03C020E030E002C024E0ED
:1009D00030E0822B932B9C9B03C020E030E002C0D0
:1009E00028E030E0822B932B9D9B03C020E030E079
:1009F00002C020E130E0822B932B9E9B03C020E0BD
:100A000030E002C020E230E0282B392B83B3082EDF
:100A1000000C990B809590958827990F881F99272E
:100A200076E0880F991F7A95E1F7822B932BCB9B69
:100A300003C020E030E002C020E830E0822B932B9E
:100A4000CA9B03C020E030E002C020E031E0822BEE
:100A5000932BC99B03C020E030E002C020E032E0CD
:100A6000822B932BC89B03C020E030E002C020E023
:100A700034E0822B932BB09B03C020E030E002C017
:100A800020E038E0822B932B423041F0433041F09C
:100A9000413011F0DF9A05C0DE9A03C0DD9A01C033
:100AA000DC9A208131818217930721F09183808322
:100AB000509364004F5F3296443009F05ECF8091CE
:100AC0006400882361F1815080936400882339F0A9
:100AD000EFE9FFE03197F1F700C0000020C08091FE
:100AE0005005909151059093590580935805809138
:100AF00052059091530590935B0580935A05809120
:100B000054059091550590935D0580935C05809107
:100B100056059091570590935F0580935E050E945E
:100B2000DE0681E0CF911F910F91FF90EF90089525
:100B3000E82FF0E0EE0FFF1FE85AFA4F8081918115
:100B40000895089508950C94A2050C94A3050C949F
:100B5000A205811102C06093600508959C01FB010C
:100B6000828190916105882311F09F5F01C09150AF
:100B70009093610580916005882339F0809161052B
:100B8000882311F0959A01C09598C9010C94E80545
:100B900080916500882319F010926500089581E026
:100BA000809365000895882329F08EE10E940F1933
:100BB0008EE104C08FE10E940F198FE10C94191A85
:100BC0000F9306E024E043E00E947E060F91089513
:100BD0008D5D9C458730910508F04DC0DB01865D39
:100BE0009F4FFC010C942E3012968C91882309F4AF
:100BF00043C080E00BC012968C918823E9F181E01C
:100C000005C012968C918823B9F182E00E945E069D
:100C100030C00E94C8052DC0809165000E94D30598
:100C200028C012968C91882339F10E94480F40E029
:100C300066E070E086E990E00E94970E84E00E94F2
:100C4000C02183E00E94C02186E00E94C02185E08F
:100C50000E949F210EC012968C91882369F040E07B
:100C600066E070E086E690E00E94970E85E00E94C4
:100C7000C02180E0089581E0089581110CC06623B1
:100C800029F081E50E940F1981E512C082E50E94DA
:100C90000F1982E50DC0813069F4662329F08FE4D5
:100CA0000E940F198FE404C080E50E940F1980E5AF
:100CB0000C94191A0895089581E00895CF93DF9355
:100CC000C82F20E8829FC001112440E060E170E05D
:100CD0008A539F4F0E94970E61E070E0CB0102C0E3
:100CE000880F991FCA95E2F7EC010E94B423BE0158
:100CF00080E090E0DF91CF910C943F218F929F9202
:100D0000AF92BF92CF92DF92EF92FF920F931F9319
:100D10006B017C0181E090E0A0E0B0E04C015D015E
:100D200004C0880C991CAA1CBB1C4A95D2F7AC01C4
:100D3000BD0104C0440F551F661F771F2A95D2F7C7
:100D4000482959296A297B2904C0880F991FAA1F9D
:100D5000BB1F0A95D2F78A019B010C211D212E2170
:100D60003F21401751076207730739F4BC01CD01D9
:100D70006C297D298E299F290AC080959095A09580
:100D8000B095BC01CD016C217D218E219F211F9149
:100D90000F91FF90EF90DF90CF90BF90AF909F901A
:100DA0008F9008950E94A123811102C00E941D24EA
:100DB0000E940D0F0E94D4160C94A5050E94721378
:100DC0000E943F170C94A705282F2F7041F0822F07
:100DD00090E02A3010F44D9608950697089587E222
:100DE00090E0089508950C94F2060C94F30608958B
:100DF000CF93DF930E94351D0E9437130E94662413
:100E0000EC0140E063E070E086E792E00E94970E1C
:100E10000E94F706CE010E9472248A3F910538F4A1
:100E20008FE99FE00197F1F700C00000F3CF0E9427
:100E3000480FDF91CF910C94C224FF920F931F9320
:100E4000CF93DF938C01FC01C081D1818091EF05AC
:100E5000811113C08281882349F0CE010E9494221F
:100E6000F82E682FCE010E943D2204C0CE010E94C0
:100E70006822F82EBE018F2D04C0CE010E9494225C
:100E8000BE010E94A308EC01B8010E94AE058823B0
:100E900009F44EC1B801CE010E94200B882309F449
:100EA00047C1B801CE010E94D613882309F440C17E
:100EB000B801CE010E947D15882309F439C1C531DE
:100EC000FCE5DF0708F092C0C2308CE5D80708F4D3
:100ED00066C0F8018281882309F46DC00E94A123B5
:100EE000811102C00E941D240E94B92390E09093BA
:100EF0000B0780930A07FE01E350FC45E231F10540
:100F000030F4EF5CFF4F80910A070C942E308091F3
:100F10000A0781603BC0826039C0846037C0886046
:100F200035C0806133C0806231C080642FC080686A
:100F30002DC08460886080930A0740E064E070E020
:100F400086E492E019C08E7F21C08D7F1FC08B7F09
:100F50001DC0877F1BC08F7E19C08F7D17C08F7B00
:100F600015C08F7713C08B7F877F80930A0740E07F
:100F700062E070E086E692E00E94970E09C087FB6F
:100F8000222720F991E0922790FB87F980930A07A6
:100F900080910A070E94BD230E94351DC9C0C1155A
:100FA000ECE5DE0781F0C130DC45A9F081E08093FB
:100FB000670580936805C801DF91CF911F910F915C
:100FC000FF900C945C06F8018281882309F4B0C07C
:100FD0000E94F806ADC0F8018281882309F4A8C0F8
:100FE00080915B06816080935B06A2C0C63D8CE564
:100FF000D80719F5F8018281882351F0109267050E
:101000000E946624909364058093630582E02BC060
:101010008091670581110FC08091630590916405EF
:101020000E947224883C910530F486E20E940F19D8
:1010300086E20E94191A82E01EC0C73DECE5DE0779
:10104000E8F0C73D8CE5D80709F053C0F80182816C
:10105000882361F0109268050E94662490936605CB
:101060008093650580E20E94811A62C080916805C4
:10107000882379F180E20E94881A5AC0C631DC4583
:1010800009F094CF0E946523982FF8018281209166
:10109000A2043091A304882379F09A7A81E009F4BC
:1010A00080E080936205911102C069E201C065E3AE
:1010B000C9010E9453240AC080916205811102C0B7
:1010C00069E201C065E3C9010E9455240E943223F0
:1010D0002FC080916505909166050E947224883C1E
:1010E000910540F687E20E940F1987E20E94191AC3
:1010F000C1CFC83DDC4509F059CFF801828181118B
:10110000A9CF809168058111B5CF80916505909137
:1011100066050E947224883C910508F0ABCF80E2FE
:101120000E94881A88E20E940F1988E20E94191A08
:1011300080E0DF91CF911F910F91FF90089580E0A3
:1011400090E00895089520E3829FC0011124FC01DE
:101150002CE0729FE00DF11D1124E60FF11DEE0F42
:10116000FF1FE258FE4F859194910895880F991FB3
:10117000FC01E65DFB4F859194910895CF93DF9339
:101180000E94A3080E94620AEC018115904508F0B4
:1011900041C0C11580E4D80708F01CC1C83ED10584
:1011A00010F5C03ED10508F089C1C83AD10578F4E0
:1011B000C53AD10508F09EC0C130D10509F47EC101
:1011C00008F435C1C430D10508F078C130C1CD3B39
:1011D000D10508F49AC0C03CD10508F428C1CE015D
:1011E000805C9109E9C0C11590E2D90758F4C11596
:1011F00021E0D20708F062C1C03FD10508F417C151
:10120000D0655CC1C11580E3D80708F0D9C0CE0114
:101210009F70D2C0C11595E5D90708F044C0C1152B
:1012200024E5D20708F0EDC0C11582E5D80710F516
:10123000C11591E5D90708F0D0C0CE0174E09695AC
:1012400087957A95E1F7282F23703C2F337081E042
:1012500090E002C0880F991F3A95E2F79C68922BA4
:10126000CF70C695C69520E2C29FE0011124C82B1D
:10127000D92B24C19E01237033278C2F8695869508
:10128000C115D34508F0AEC0C1E0D0E002C0CC0F1C
:10129000DD1F2A95E2F720E2829FC0011124C82BAE
:1012A000D92BDC680BC1C11529E5D20780F4C11523
:1012B00088E5D80708F0AAC0C11596E5D90708F057
:1012C000B6C0CF71DD27DC2FCC27D062F7C0CE01AE
:1012D000C1152AE5D20708F49EC0905681159042A8
:1012E00008F0A5C08D2F8F710E94DE0ADD27D06225
:1012F0008F719BC0C53AD10509F49CC0C63AD1058F
:1013000009F09BC0C2E8D0E4D9C0C83AD10509F4BD
:1013100097C0C93AD10509F496C0CA3AD10509F473
:1013200095C0CB3AD10509F494C0CC3AD10509F463
:1013300093C0CB3BD10509F492C0CC3BD10509F455
:1013400091C0CD3AD10509F490C0C03BD10509F454
:101350008FC0CE3AD10509F48EC0CF3AD10509F439
:101360008DC0C13BD10509F48CC0C23BD10509F445
:101370008BC0C33BD10509F48AC0C43BD10509F435
:1013800089C0C53BD10509F488C0C63BD10509F425
:1013900087C0C73BD10509F486C0C83BD10509F415
:1013A00085C0C93BD10509F484C0CA3BD10509F405
:1013B00083C0C0E0D4E482C00E94B608EC017EC0C5
:1013C000CE019927D3FF03C0EC01D86C77C0EC01A4
:1013D000D06C74C0DF70D06A71C0DC2FCC27C16FB5
:1013E000D06A6CC0C1E0D0E002C0CC0FDD1F2A95EE
:1013F000E2F720E2829FC0011124C82BD92BDA68C2
:101400005DC0DC2FCC27C46FD06A58C0DC2FCC273E
:10141000C06FD06A53C024E0969587952A95E1F76E
:101420008F70CF70C06ED0E0D06AD82B47C0C0E0BC
:10143000D0E044C0C1E8D0E441C0C3E8D0E43EC03D
:10144000C2EED4E43BC0C9EED4E438C0CAEED4E462
:1014500035C0C5EBD4E432C0C6EBD4E42FC0C3EB37
:10146000D4E42CC0C4EBD4E429C0C7EBD4E426C038
:10147000CCECD4E423C0CDECD4E420C0C3E8D5E464
:101480001DC0CAE8D5E41AC0C2E9D5E417C0C4E952
:10149000D5E414C0C1E2D6E411C0C3E2D6E40EC064
:1014A000C4E2D6E40BC0C5E2D6E408C0C6E2D6E486
:1014B00005C0C7E2D6E402C0CAE2D6E4CE01DF919D
:1014C000CF9108958238910549F1B0F481339105A7
:1014D00009F459C048F48932910509F44FC08A32A1
:1014E000910509F455C008958533910509F441C06B
:1014F0008933910599F00895833E910531F138F4CF
:10150000803E910591F0823E9105A9F00895863EB6
:10151000910501F1873E910539F1089520910A075F
:1015200020FD3BC021FD39C0089580910A0780FF4E
:1015300034C089E341C080910A0782FF30C08091A6
:101540000A0784FD2EC083EE37C080910A0782FD12
:1015500026C0F5CF80910A0783FF25C080910A0736
:1015600084FD1FC087EE28C080910A0783FD1BC041
:10157000F5CF80910A0785FD18C019C080910A0730
:1015800085FD15C012C080910A0786FD12C013C0E8
:1015900080910A0786FD0FC00CC080EE0DC082EE60
:1015A0000BC080E009C086EE07C089E205C085E374
:1015B00003C08AE201C081E390E0089590910A0798
:1015C00092FF0DC0282F2871283019F4877F84607E
:1015D00006C0282F2471243011F48B7F886093FF7C
:1015E0000DC0282F2871283119F4877E846106C028
:1015F000282F2471243111F48B7E886194FD877E1D
:101600000895682F70E065547109072E000C880B4F
:10161000990B0E940B2D20E030E040E451E40E9441
:10162000612C9B01AC0160E070E080E090E40E94DE
:101630008F2E20E030E04CED53E40E94222E0895DE
:10164000FB018D312CE5920731F482818823A1F1D1
:101650000E947A102FC08E312CE5920731F48281DE
:10166000882351F10E948A1025C08F312CE5920702
:1016700041F48281882301F10E9476108111F2CF1A
:10168000E7CF8A322CE5920731F482818823A1F0DA
:101690000E94A31008C08B329C4571F4828188237C
:1016A00059F00E94AC1040E064E070E08EE892E0F7
:1016B0000E94970E80E0089581E008950E94010B3A
:1016C0004FE050E00C941D100E94010B0C947F0F12
:1016D0000C94480F08951F920F920FB60F92112489
:1016E0004F925F926F927F928F929F92AF92BF9232
:1016F000CF92DF92EF92FF922F933F934F935F939E
:101700006F937F938F939F93AF93BF93CF93DF9309
:10171000EF93FF9380917C05882309F4A7C1C091C2
:10172000BE05D091BF051C161D060CF09FC1409050
:101730006C0550906D0560906E0570906F0520E00F
:1017400030E0A901C301B2010E941D2E18160CF051
:1017500065C0C130D10509F452C08091BC0590919B
:10176000BD05BE010E941A307C019093BD05809397
:10177000BC0580907E0590907F05A0908005B0907C
:10178000810520E030E040E85FE3C501B4010E943C
:10179000F02B60937E0570937F0580938005909376
:1017A0008105F701EE0FFF1FEE0FFF1FEE56FA4FF8
:1017B000A301920160817181828193810E94612CD9
:1017C00020E030E040E05EE30E94222E9B01AC016D
:1017D000C501B4010E941D2E18168CF4C701019694
:1017E000BE010E941A309093BD058093BC051092F3
:1017F0007E0510927F051092800510928105E09180
:10180000BC05F091BD05EE0FFF1FEE0FFF1FEE565A
:10181000FA4F6081718182819381E0C08091F602EC
:101820002197882309F4BFC0C090B805D090B905AE
:10183000E090BA05F090BB0520E030E0A901C701B7
:10184000B6010E945C2C882309F4A2C0FE01EE0FB1
:10185000FF1FEE0FFF1FEE56FA4F80809180A2808F
:10186000B380A5019401C701B6010E945C2C87FFDB
:1018700031C0A501940160E070E08CED93EC0E9412
:10188000612C20E030E040E451E40E94612C20E033
:1018900030E040E05FE30E94222E9B01AC0160E05B
:1018A00070E080E090E40E948F2E9B01AC01C501A6
:1018B000B4010E94222E9B01AC01C701B6010E9417
:1018C0005C2C87FF07C0A701960160E070E08CEDFB
:1018D00093E439C0A5019401C701B6010E941D2EF1
:1018E00018160CF055C0A501940160E070E08CED75
:1018F00093E40E94612C20E030E040E451E40E9437
:10190000612C20E030E040E05FE30E94222E9B014A
:10191000AC0160E070E080E090E40E948F2E9B01BB
:10192000AC01C501B4010E94222E9B01AC01C7018C
:10193000B6010E941D2E18165CF5A701960160E005
:1019400070E08CED93EC0E94612C20E030E040E4EC
:1019500051E40E94612C20E030E040E05FE30E940F
:10196000222E9B01AC0160E070E080E090E40E94D8
:101970008F2E9B01AC01C701B6010E94222E6093FD
:10198000B8057093B9058093BA059093BB051EC046
:10199000CC0FDD1FCC0FDD1FCE56DA4F8881998129
:1019A000AA81BB810BC0FE01EE0FFF1FEE0FFF1FD0
:1019B000EE56FA4F80819181A281B3818093B80560
:1019C0009093B905A093BA05B093BB056091B80593
:1019D0007091B9058091BA059091BB052091690578
:1019E00030916A052F3F4FEF340731F02F5F3F4FA3
:1019F00030936A05209369050E94B5106B017C0144
:101A000020E034E244EF51E40E945C2C87FF08C0E0
:101A100086EFC82E88E2D82E84EFE82E81E4F82ED7
:101A200020E030E040E051E4C701B6010E94222EE0
:101A30009B01AC0160E074E284E79BE40E94612CAE
:101A40006B017C010E94DA2C77BD66BD2091F70204
:101A50003091F8024091F9025091FA02C701B601A3
:101A60000E94222E0E94DA2C7BBD6ABD80917D05EA
:101A7000882309F435C1C0907805D0907905E090AD
:101A80007A05F0907B0520E030E0A901C701B6019E
:101A90000E941D2E1816B4F58091690590916A0573
:101AA0008F3F2FEF920729F0019690936A0580935C
:101AB0006905C701B6010E94B51020E030E040E0A2
:101AC00051E40E94222E9B01AC0160E074E284E7A5
:101AD0009BE40E94612C6B017C010E94DA2C77BD93
:101AE00066BD2091F7023091F8024091F9025091C1
:101AF000FA02C701B6010E94222E0E94DA2C7BBD99
:101B00006ABD04C017BC16BC1BBC1ABC6091720530
:101B1000709173056F5F7F4F7093730560937205CB
:101B200026B537B580E090E0232B61F12091710557
:101B3000211128C0C6B5D7B50E94092D6B017C01C3
:101B4000BE0180E090E00E94092D9B01AC016091F4
:101B500074057091750580917605909177050E94C6
:101B6000612C20E03FEF4FE757E40E94222E20E057
:101B700030E040E85FE30E94EF2B9B01AC01C7011E
:101B8000B6010AC00E94092D209174053091750597
:101B900040917605509177050E941D2E87FDA0C0CB
:101BA000809170058F5F8093700590E02091FB0617
:101BB0003091FC068217930780F0809102078823FA
:101BC00019F01092700509C089B78F7E89BF8FB553
:101BD0008F738FBD10927D058BC0909171058091A0
:101BE0007005E091FD06F091FE06911137C091E07D
:101BF0009093710581508093700548E0849FE00DBB
:101C0000F11D1124C080D180E280F38020853185D0
:101C100042855385C701B6010E945C2C811109C021
:101C2000109278051092790510927A0510927B0532
:101C300008C0C0927805D0927905E0927A05F092BA
:101C40007B0580E090E0A0E8BFE38093740590936B
:101C50007505A0937605B09377053EC01092710587
:101C600010926A051092690598E0899FE00DF11DB8
:101C7000112480819181A281B38180937805909312
:101C80007905A0937A05B0937B0520E030E040E829
:101C90005EE364817581868197810E94222E6B01AB
:101CA0007C016091FB0270E080E090E00E94092DD1
:101CB00020E030E048EC52E40E94612C9B01AC0132
:101CC000C701B6010E94222E6093740570937505BA
:101CD00080937605909377051092730510927205A4
:101CE0008091FF0680FD04C010927D0510927C0556
:101CF000FF91EF91DF91CF91BF91AF919F918F9124
:101D00007F916F915F914F913F912F91FF90EF9055
:101D1000DF90CF90BF90AF909F908F907F906F900B
:101D20005F904F900F900FBE0F901F901895CF921D
:101D3000DF92EF92FF92CF93DF93EC016B01F42ED1
:101D400080916B05811102C00E940D0F8091FF06EA
:101D500080FF5CC089B78F7E89BF80917C0581112F
:101D60000E94480F81E080937D05D093FE06C093CA
:101D7000FD06D092FC06C092FB06F092020710927C
:101D80007E0510927F0510928005109281051092B9
:101D9000700588819981AA81BB8180937805909391
:101DA0007905A0937A05B0937B0520E030E040E808
:101DB0005EE36C817D818E819F810E94222E6B016A
:101DC0007C016091FB0270E080E090E00E94092DB0
:101DD00020E030E048EC52E40E94612C9B01AC0111
:101DE000C701B6010E94222E609374057093750599
:101DF0008093760590937705109273051092720583
:101E000089B7806189BF8FB580688FBDDF91CF9121
:101E1000FF90EF90DF90CF9008950E94A123811151
:101E200002C00E941D240E94C2238093FF0680915D
:101E30006B05811121C08D9A89B78F7E89BF82E0A1
:101E40008FBD8AE18EBD81EC91E197BD86BD23EA0D
:101E50003BE04EE855E46091F7027091F802809102
:101E6000F9029091FA020E94222E0E94DA2C7BBD88
:101E70006ABD81E080936B058091FF0680FF07C0FB
:101E800040E065E070E08EEC92E00C94970E0895CF
:101E900080916B05811102C00E940D0F1092BF0549
:101EA0001092BE0589B78F7E89BF8FB58F738FBDA6
:101EB00010927D0510927C051092B8051092B9051C
:101EC0001092BA051092BB051092B4051092B50598
:101ED0001092B6051092B7051092B3051092B20594
:101EE000E2E9F5E0A2E8B5E01192119211921192A7
:101EF0001D921D9285E0E23BF807B1F70895CF925D
:101F0000DF92EF92FF920F931F93CF93DF93209175
:101F10007C05222309F488C06B017C0180916B054C
:101F2000811102C00E940D0F02EB15E0C7E0D0E066
:101F3000A7019601F80192918291729162918F01AD
:101F40000E945C2C811131C0FE01EE0FFF1FEE0FCD
:101F5000FF1FEE56FA4F1082118212821382DE01A9
:101F6000AA0FBB1FAE57BA4F11961C921E92C730D4
:101F7000D105E9F0219644815581668177814083BE
:101F8000518362837383148215821682178212969C
:101F90008D919C91139711969C938E9313961C92FE
:101FA0001E92129734961296E2CF219708F68091EE
:101FB000BE059091BF05019797FD05C09093BF05A1
:101FC0008093BE0504C01092BF051092BE0580919B
:101FD000BE059091BF052091BC053091BD05281725
:101FE000390724F01092BD051092BC05892BE1F44D
:101FF00089B78F7E89BF8FB58F738FBD1092B8055B
:102000001092B9051092BA051092BB051092B40552
:102010001092B5051092B6051092B7051092B3054F
:102020001092B20510927C05DF91CF911F910F9114
:10203000FF90EF90DF90CF900895CF92DF92EF92D4
:10204000FF92CF93DF936B017C01EA0180916B05D6
:10205000811102C00E940D0F8091FF0680FF3FC0DA
:102060008091BE059091BF050897CCF589B78F7E0A
:1020700089BF80917D0581110E94480F81E0809386
:102080007C0510926A051092690520E030E0A901F4
:10209000C701B6010E941D2E1816DCF48091BE0502
:1020A0009091BF05FC01EE0FFF1FEE0FFF1FEE56D4
:1020B000FA4FC082D182E282F382FC01EE0FFF1F51
:1020C000EE57FA4FD183C08301969093BF0580935A
:1020D000BE0589B7806189BF8FB580688FBDDF91EC
:1020E000CF91FF90EF90DF90CF9008958091FF0601
:1020F000817008958091FF0681608093FF060E94A1
:10210000C6230E946A0B40E062E070E08EEB92E032
:102110000C94970E40E062E070E08EEA92E00E943C
:10212000970E2FEF81EE94E0215080409040E1F730
:1021300000C000000E94480F8091FF068E7F8093B0
:10214000FF060C94C6238091C00590E0019687702D
:1021500099278093C00508958091C00590E0079667
:10216000877099278093C00508958F929F92AF92B0
:10217000BF92CF92DF92EF92FF92CF93DF936B01EA
:102180007C01C0916905D0916A05BE0180E090E0B4
:102190000E94092D4B015C01A701960160E070E0EF
:1021A0008CE594E40E94612C9B01AC01C501B40153
:1021B0000E94222E0E94DA2C9B01E091C0058E2EF7
:1021C000912C48E08416910408F044C2F401ED5BC0
:1021D000FF4F0C942E301092F60280E090E0A0E0C9
:1021E000BFE38093F7029093F802A093F902B093B3
:1021F000FA0210926C0510926D0510926E05109205
:102200006F0528C21092F60210926C0510926D05AF
:1022100010926E0510926F056431710528F46A30D2
:10222000710508F449C104C0693C710508F044C156
:1022300080E090E0A0E8BEE373C01092F602109236
:102240006C0510926D0510926E0510926F0520E0DE
:1022500030E040EA52E4C701B6010E945C2C87FDE1
:10226000F9C120E030E040E253E4C701B6010E942A
:102270005C2C87FF2FC00E94803068E270E00E94D3
:102280001A30BC01645C7F4F072E000C880B990B41
:102290000E940B2D6B017C018091690590916A056C
:1022A0008B309105C8F18531910508F080C165E159
:1022B00070E0681B790B80E090E00E94092D20E01F
:1022C00030E040E05FE30E94222E20E030E040E278
:1022D00051E4A8C020E030E040EA53E4C701B60171
:1022E0000E945C2C87FF2CC00E94803068EE73E057
:1022F0000E941A30BC0168517C4F072E000C880BDD
:10230000990B0E940B2D6B017C01809169059091C6
:102310006A058630910568F480E090E0A0E0BFE3B4
:102320008093F7029093F802A093F902B093FA0217
:1023300091C18531910508F03AC165E170E062C054
:1023400020E030E040E254E4C701B6010E945C2C7A
:1023500087FF2FC00E94803060ED77E00E941A3026
:10236000BC016854744F072E000C880B990B0E9417
:102370000B2D6B017C018091690590916A0580317C
:10238000910550F28531910508F011C165E170E0C9
:10239000681B790B80E090E00E94092D20E030E07E
:1023A00040E05FE30E94222E20E030E040EA50E46B
:1023B00039C020E030E040EA54E4C701B6010E9491
:1023C0005C2C87FF47C10E94803060ED77E00E945F
:1023D0001A30BC016854744F072E000C880B990BFF
:1023E0000E940B2D6B017C018091690590916A051B
:1023F0008432910508F490CF8333910508F0D7C05B
:1024000063E370E0681B790B80E090E00E94092D87
:1024100020E030E040E05FE30E94222E20E030E048
:1024200040E751E40E94612C7CC041E04093F602F9
:1024300010926C0510926D0510926E0510926F054A
:102440006431710540F46A30710560F520E030E0D8
:1024500040E85EE32BC0693C710508F0A8C080E04D
:1024600090E00E94092D20E030E040EA51E40E9413
:10247000EF2B20E030E044E353E40E94612C9B0109
:10248000AC010E94222E20E030E040E05EE30E949A
:10249000222E9B01AC0160E070E080E09EE30E9490
:1024A000EF2B3FC020E030E040E05FE3C701B60122
:1024B0000E94222E6B017C0180E090E0A0E0BEE350
:1024C0002FCF21E02093F60210926C0510926D053B
:1024D00010926E0510926F054AE0469F9001479F4B
:1024E000300D1124C90168EB7BE00E940630BC016D
:1024F0006C5D754077FF03C0719561957109072E7A
:10250000000C880B990B0E940B2D2EE333EC4EE24E
:1025100059E30E94222E20E030E040EC5EE30E946E
:10252000F02B6093F7027093F8028093F902909376
:10253000FA0290C081E08093F60210926C0510922E
:102540006D0510926E0510926F05CE01837099276C
:10255000892BE1F0BE016170772780E090E00E9456
:10256000092D20E030E040E05EE30E94222E20E0D2
:1025700030E040E45FE30E94F02B6093F702709339
:10258000F8028093F9029093FA020CC080E090E088
:10259000A0E0BFE38093F7029093F802A093F902C2
:1025A000B093FA02C770DD27CD2B09F053C010920B
:1025B000F7021092F8021092F9021092FA024AC041
:1025C00041E04093F60210926C0510926D05109256
:1025D0006E0510926F05812C912CA12C9FE3B92ED2
:1025E0008092F7029092F802A092F902B092FA0259
:1025F0002739310578F180E090E00E94092D20E034
:1026000030E047E153E40E94EF2B20E030E04AE75E
:1026100054E40E94612C20E030E048E452E40E943F
:10262000222E20E030E040EA51E40E94512D0E9429
:10263000D32C660F771F660F771FFB01E752FB4F06
:102640002081318142815381C701B6010E94222E2F
:102650006B017C01C701B601DF91CF91FF90EF9034
:10266000DF90CF90BF90AF909F908F900895809112
:10267000D90581110C94680B089521E08F3F9105D5
:1026800008F020E0822F08950C943D130E94371328
:102690001092D90540E068E070E08CE793E00C947C
:1026A000970E1092D80540E068E070E08CEF92E061
:1026B0000C94970E0E94371320919E0430E02F5FF8
:1026C0003F4F2370332720939E0448E2429FC0016E
:1026D000439F900D112440E065E070E084509C4FD2
:1026E0000C94970ECF938091D505882309F442C0AE
:1026F0008091C1059091C205009781F40E946624E3
:102700009093C2058093C1052091C30530E0211547
:10271000310571F48091C40590E00BC00E947224D1
:1027200020919C0430919D042817390738F322C06A
:10273000C9010197F901EB53FA4FC0812091D905E6
:10274000222331F0FC01EB53FA4F80810E94640B8D
:102750008091D905882319F08C2F0E945E0B8091FF
:10276000C30590E001966091C40570E00E941A30A4
:102770008093C305CF910895089581E08093D90592
:1027800040E068E070E08CEB93E00E94970E0C94C0
:10279000BC13089581E08093D80540E068E070E0C4
:1027A0008CE393E00E94970E0C94C913EF92FF9272
:1027B0001F93CF93DF93CDB7DEB7A3970FB6F894EF
:1027C000DEBF0FBECDBF7C0186E2E8168CE5F806C1
:1027D00041F4FB018281882309F450C00E94BD139B
:1027E000AAC0F7E2EF16FCE5FF0641F4FB01828187
:1027F000882309F443C00E9446139DC0F8E2EF16F7
:10280000FCE5FF0649F4FB0182818823B9F1809140
:10281000D9058111F0CFE2CFFCE2EF16FCE5FF060F
:1028200039F4FB018281882349F10E94CA1383C0D5
:10283000FDE2EF16FCE5FF0639F4FB0182818823F7
:10284000E9F00E94511377C0FEE2EF16FCE5FF06A7
:1028500049F4FB018281882389F08091D805811198
:10286000F0CFE3CFF9E2EF16FCE5FF0639F4FB0108
:102870008281882319F00E945A135DC09091D90576
:10288000911105C08091D805882309F4D8C0FB01B7
:102890004281442309F451C0F0EEEF16F10461F4D3
:1028A0000E94371381E08093D7051092D6051092CD
:1028B000D5051092C4053FC082EEE816F10471F40C
:1028C0000E9437138091D705882319F081E0809307
:1028D000D6051092D7051092D5052DC0E3EEEE1661
:1028E000F10491F48091D605882339F10E943713C1
:1028F0001092D70581E08093D5051092C305109200
:10290000C2051092C10517C0F2E5EF16F10431F4CB
:1029100080919C0490919D040A9709C081E5E81676
:10292000F10459F480919C0490919D040A9690932F
:102930009D0480939C0480E083C080919E0481115B
:102940000AC0FB0110818091A104180F13508091DF
:102950009F04180F4AC08130A1F4FB0110818091BF
:10296000A104180F105E20919F04120F818124E0B2
:1029700030E0281B3109822F880F880F280F120F93
:102980003DC0823099F4FB0110818091A104180FA1
:10299000105E80919F04180F818124E030E0281B95
:1029A0003109F7E02F9F100D112428C0833021F545
:1029B00083E2E6EBF4E0DE01119601900D928A9538
:1029C000E1F7FB01808121E030E02C0F3D1F280F53
:1029D000311DE0919F04F091A004E20FF31F1091CC
:1029E000A10413508081180FFB01818124E030E0A5
:1029F000281B3109FCE0D6CF1091A1044423A1F09B
:102A0000992319F0812F0E945E0B8091D7058823AE
:102A100081F08091C405E82FF0E0EB53FA4F10836A
:102A20008F5F8093C40505C0992319F0812F0E9400
:102A3000640BC7010E94441391E0892701C081E023
:102A4000A3960FB6F894DEBF0FBECDBFDF91CF9136
:102A50001F91FF90EF9008958F929F92AF92BF9237
:102A6000EF92FF920F931F93CF93DF934B015C0183
:102A700007E010E08CE1E82EF12CD1E0D501C40193
:102A80000E2C04C0B695A795979587950A94D2F712
:102A9000C82FCF7069F4D11116C080E00E94E406FF
:102AA0000E940F1980E00E94E4060E94191A0BC0D0
:102AB0008C2F0E94E4060E940F198C2F0E94E406BE
:102AC0000E94191AD0E00150110984E0E81AF108B7
:102AD0000F3F8FEF180729F0043011057CF6D0E086
:102AE000CDCFDF91CF911F910F91FF90EF90BF90CD
:102AF000AF909F908F90089508958F929F92AF927C
:102B0000BF92CF92DF92EF92FF92CF93DF93EC01CF
:102B10007B010E94FC150E94F915D7FF5EC0F701EA
:102B20009281992309F459C0FE01EE0FFF1FEE0FA9
:102B3000FF1FE25EFB4F85909590A590B4907501C4
:102B40006401F1E0EF1AF108C114D10490E1E90643
:102B5000F10428F5882311F0853061F50E940A16EA
:102B6000D701C60188279C7FAF70BB272AE0B695A6
:102B7000A795979587952A95D1F7BC01CD017852F5
:102B80008F4F9F4F0E942C15D701C6019370AA2723
:102B9000BB27BC01CD0174528F4F9F4F1AC08114C7
:102BA0009104E1E1AE06B10428F0882359F08530A4
:102BB00039F408C081149104F0E1AF06B10428F0A3
:102BC000813019F40E947C1508C00E940A16C501C4
:102BD000B4010E942C150E94861681E0DF91CF91EE
:102BE000FF90EF90DF90CF90BF90AF909F908F902D
:102BF00008958091DB0508958091DA05811109C05F
:102C00008CE090E00E9490308093DB0581E080931F
:102C1000DA050895E091A204F091A30480818093E5
:102C2000030781FF03C081EE0E94191A80910307F8
:102C300085FF03C085EE0E94191A8091030780FF6B
:102C400003C080EE0E94191A8091030784FF03C01D
:102C500084EE0E94191A8091030782FF03C082EE5E
:102C60000E94191A8091030786FF03C086EE0E9416
:102C7000191A8091030783FF03C083EE0E94191A7B
:102C80008091030787FF03C087EE0E94191A809185
:102C9000DB05823001F1A8F48823C9F0813079F591
:102CA00080EE0E940F1981EE0E940F1988E10E94A8
:102CB0000F1988E10E94191A81EE0E94191A80EEFC
:102CC0001CC0843081F08530D1F486EE01C082EEE4
:102CD0000E940F1914C082EE0E940F1987E50E940E
:102CE0000F1987E50AC086EE0E940F1986EE0E9432
:102CF000191A88E10E940F1988E10E94191A8FE3BE
:102D00009CE90197F1F700C0000008958091DB0570
:102D1000813049F030F0823021F0853051F486EE78
:102D200006C082EE04C08CE20E940F198CE20E9461
:102D3000191A8091030781FF03C081EE0E940F19C9
:102D40008091030785FF03C085EE0E940F198091D3
:102D5000030780FF03C080EE0E940F1980910307D4
:102D600084FF03C084EE0E940F198091030782FF45
:102D700003C082EE0E940F198091030786FF03C0F3
:102D800086EE0E940F198091030783FF03C083EE34
:102D90000E940F198091030787FF03C087EE0C94F0
:102DA0000F1908950C943D06AF92BF92CF92DF9217
:102DB000EF92FF920F931F93CF93DF93ABE3B5E0B6
:102DC00029E335E08EEDA82E85E0B82E6DE375E0A1
:102DD00041E050E0CD918C2F82958F7090E0FC0106
:102DE00011A9CF70EC2E6A0101C0CC0CCA95EAF78C
:102DF000FC2DF0951F23EC0119ABCAA9CC29FC01CD
:102E0000C2ABE90119919E01E12FE295EF70F0E06C
:102E1000F1A81F706A01012E01C0CC0C0A94EAF7D8
:102E20000C2D0095F022F1AA02A90C2902ABEC01AD
:102E300088A990E002C095958795EA94E2F78170A1
:102E4000E0A9F0E002C0F595E7951A95E2F7E0FDFC
:102E500002C090E001C092E0892BF50181935F01EF
:102E60006A177B0709F0B6CFDF91CF911F910F91C1
:102E7000FF90EF90DF90CF90BF90AF9008957F923A
:102E80008F929F92AF92BF92CF92DF92EF92FF927A
:102E90000F931F93CF93DF938EED882E85E0982EAE
:102EA0009BE3E92E95E0F92E09E315E0CCEDD5E0A2
:102EB00064015401712CD5018D915D01E82FEE0F55
:102EC000EE0FD601ED936D01D7018D917D01A82FF5
:102ED000A295AF70B0E0D0962C9130E08F7002C018
:102EE000359527958A95E2F721703327D8018D9182
:102EF0008D01A82FA295AF70B0E0D0964C9150E014
:102F00008F7002C0559547958A95E2F7CA01817086
:102F1000992740FF02C082E090E0822B932B8E2BFA
:102F2000F40181934F018F70E82FF0E0E75DFA4FD5
:102F300090818881890F8883843024F060E0872D18
:102F40000E94D21688818D3F24F461E0872D0E9473
:102F5000D2168881837887FF03C081508C6F8F5F82
:102F600089937394F2E07F12A6CFDF91CF911F91E6
:102F70000F91FF90EF90DF90CF90BF90AF909F9018
:102F80008F907F9008959093E5058093E4050895D0
:102F9000E091E405F091E505309721F00190F08192
:102FA000E02D099480E00895E091E405F091E505B5
:102FB000309721F00280F381E02D09940895E0918B
:102FC000E405F091E505309721F00480F581E02DCE
:102FD000099408952091E2053091E30528173907F7
:102FE00071F09093E3058093E205E091E405F091A0
:102FF000E505309721F00680F781E02D09940895CA
:103000002091E0053091E1052817390771F0909380
:10301000E1058093E005E091E405F091E505309746
:1030200021F00084F185E02D0994089581E0089550
:103030000E945F240E943C040C94DB245F926F92F8
:103040007F928F929F92AF92BF92CF92DF92EF9238
:10305000FF920F931F93CF93DF93CDB7DEB72A97DD
:103060000FB6F894DEBF0FBECDBF0E9478040E9459
:103070001618811111C08FEF89838A831B820E94E9
:1030800066248160782F9D838C8349815A816B816E
:103090008D810E94DB1856C097EE692E95E0792E3F
:1030A00000E010E088248394912C502E802F0E9401
:1030B00098056C01F301A190B1903F01A826B926B3
:1030C000A114B10431F40F5F1F4F0430110569F7EB
:1030D000D2CF80915B0681FD0E94A10580E090E047
:1030E0007401082E02C0EE0CFF1C0A94E2F7950151
:1030F0002E213F21232B09F18E835F82CE20DF20FA
:1031000081E0CD2809F480E088870E9466248160F0
:10311000782F9A8789874E815F8168858A850E948A
:10312000DB18000F111FF801E951FA4F80819181DE
:10313000E826F926F182E08205C001968C309105DF
:1031400079F6C1CF0E946E260E94C8179091E605BD
:103150008917D9F00E94C8178093E6052A960FB602
:10316000F894DEBF0FBECDBFDF91CF911F910F91BD
:10317000FF90EF90DF90CF90BF90AF909F908F9097
:103180007F906F905F900C94F5062A960FB6F89496
:10319000DEBF0FBECDBFDF91CF911F910F91FF908A
:1031A000EF90DF90CF90BF90AF909F908F907F90E7
:1031B0006F905F900895CF93DF93CDB7DEB72B97D5
:1031C0000FB6F894DEBF0FBECDBF4F835887698717
:1031D0007A878B87DE01119686E0FD0111928A9530
:1031E000E9F785E0FE01379601900D928A95E1F7A7
:1031F00049815A816B817C818D819E810E94022050
:103200002B960FB6F894DEBF0FBECDBFDF91CF91E6
:103210000895FC01808191810E94D3220895CF936B
:10322000882309F404C1C82F8238C1F40E94C8174A
:1032300081FDFDC069E38091A2049091A3040E94E6
:1032400053240E9432232FEF81EE94E021508040DE
:103250009040E1F700C0000069E319C0833801F530
:103260000E94C81780FDE3C063E58091A20490919D
:10327000A3040E9453240E9432232FEF81EE94E096
:10328000215080409040E1F700C0000063E580914C
:10329000A2049091A3040E945524CF910C94322350
:1032A0008438C1F40E94C81782FDC1C067E48091D0
:1032B000A2049091A3040E9453240E9432232FEF72
:1032C00081EE94E0215080409040E1F700C0000082
:1032D00067E4DDCF8CEF8C0F813A68F48C2F0E946D
:1032E00080288111A4C06C2F8091A2049091A30426
:1032F0000E945324D2CF80E28C0F883048F4C770EC
:1033000081E001C0880FCA95EAF70E946823C5CF03
:103310008BE58C0F833078F4C53A29F0C63A31F04A
:1033200083E890E005C081E890E002C082E890E088
:10333000CF910C94EA1788E58C0F853108F06FC0A7
:10334000C83A61F1C93A69F1CA3A71F1CB3A79F1F7
:10335000CC3A81F1CB3B89F1CC3B91F1CD3A99F15B
:10336000C03BA1F1CE3AA9F1CF3AB1F1C13BB9F1DD
:10337000C23BC1F1C33BC9F1C43BD1F1C53BD9F15B
:10338000C63BE1F1C73BE9F1C83BF1F1C93BF9F1BB
:10339000CA3B09F43FC080E090E03EC082EE90E07E
:1033A0003BC089EE90E038C08AEE90E035C085EBF6
:1033B00090E032C086EB90E02FC083EB90E02CC011
:1033C00084EB90E029C087EB90E026C08CEC90E085
:1033D00023C08DEC90E020C083E891E01DC08AE816
:1033E00091E01AC082E991E017C084E991E014C02D
:1033F00081E292E011C083E292E00EC084E292E0AA
:103400000BC085E292E008C086E292E005C087E248
:1034100092E002C08AE292E0CF910C940018C03F83
:1034200030F08C2F0E947625CF910C946326CF919B
:103430000895882309F464C0823879F40E94C8177B
:1034400081FF5EC069E38091A2049091A3040E9471
:1034500053240E94322369E310C08338B1F40E94E0
:10346000C81780FF4DC063E58091A2049091A3042A
:103470000E9453240E94322363E58091A20490911C
:10348000A3040E9455240C943223843879F40E94BA
:10349000C81782FF35C067E48091A2049091A3040D
:1034A0000E9453240E94322367E4E7CF9CEF980FD9
:1034B000913A10F4682FE1CF90E2980F983050F4D1
:1034C000877091E001C0990F8A95EAF7892F0E94D1
:1034D0006E23D9CF9BE5980F933020F480E090E0E5
:1034E0000C94EA1798E5980F953120F480E090E06D
:1034F0000C940018803F20F00E94DE250C94632677
:103500000895882321F00E9468230C9432230895A3
:10351000882321F00E946E230C94322308958F9209
:103520009F92AF92BF92DF92EF92FF920F931F9301
:10353000CF93DF937C01D62FC72FFC010581029525
:103540000F70128111110E9485230E942B23882362
:1035500079F0112369F080E28D0F883048F082E025
:103560000E9414230E942B2391E0D82ED92601C05B
:10357000D12CBC2EB2948FE0B8228B2D90E0FC01B0
:10358000E55BFF4F0C942E308C2F807FCF7088230B
:1035900011F0C295C07F112399F0CC2309F4C3C167
:1035A00080E28D0F883010F0D11104C08C2F0E9462
:1035B000682303C08C2F0E9478230E943223B3C15A
:1035C0008D2F0E94191ACC2309F4D2C180E28D0FED
:1035D000883010F0D11104C08C2F0E946E2303C0DC
:1035E0008C2F0E947E230E943223C2C18C2F807FA9
:1035F000CF70803211F0C295C07FDD2319F0D13039
:10360000C9F022C0112371F0002341F0013031F4E0
:103610000E949E238C2B0E949823AAC10E949E2365
:103620008C2B3AC1002319F0013009F4A1C10E948A
:103630009B2318C0112321F0043008F099C10EC05B
:10364000033008F095C10EC0112351F0002331F072
:10365000F701858180FF67C18F7085838C2F1CC126
:10366000011172C18C2F1EC18C2F86958695837097
:1036700019F0813061F07CC1112321F08D2F9C2F36
:10368000937002C080E090E00E94EA177EC111238F
:1036900021F08D2F9C2F937002C080E090E00E945B
:1036A000001873C11123F9F0D53F51F0D63F71F0E6
:1036B000D43FA9F4809104079091050781600BC065
:1036C0008091040790910507826005C080910407EE
:1036D00090910507846090930507809304078D2FD0
:1036E0000E9476251EC0D53F51F0D63F71F0D43FE1
:1036F000A9F480910407909105078E7F0BC08091FB
:103700000407909105078D7F05C080910407909173
:1037100005078B7F90930507809304078D2F0E94E8
:10372000DE250E94632631C18C2F837009F04CC0C6
:10373000111127C12D2F229526952770220F220FB8
:103740006D2F6F70862F90E0A0E0B0E04C015D011E
:10375000022E04C0880C991CAA1CBB1C0A94D2F728
:10376000D4FF12C08FE090E0A0E0B0E004C0880F6A
:10377000991FAA1FBB1F2A95D2F7BC01CD016095E6
:1037800070958095909503C060E070E0CB01C69580
:10379000C695C370C23051F080F4682979298A290E
:1037A0009B29C13071F00E945321EBC0682979290F
:1037B0008A299B290E946521E4C00E945321C501EA
:1037C000B4010E944121DDC0112319F08C2F8170BA
:1037D00001C08695882309F4D4C02D2F2295269503
:1037E0002770220F220F6D2F6F70862F90E0A0E0C0
:1037F000B0E04C015D01022E04C0880C991CAA1C8B
:10380000BB1C0A94D2F7D4FF12C08FE090E0A0E076
:10381000B0E004C0880F991FAA1FBB1F2A95D2F7DA
:10382000BC01CD01609570958095909503C060E0D6
:1038300070E0CB01C695C695C370C23051F080F4DC
:10384000682979298A299B29C13071F00E941822A0
:1038500098C0682979298A299B290E942A2291C027
:103860000E941822C501B4010E9406228AC08D2F31
:1038700090E0FC01E05EF109E531F10508F04FC090
:10388000E55AFF4F0C942E30DF708C2F8F7111236F
:1038900031F00E949F218D2F0E94811A69C00E94E1
:1038A000C0218D2F0E94881A63C0112341F003307C
:1038B00008F05EC08C2F8F710E94E52159C0043042
:1038C00008F056C0F7CF112339F08C2F8F710E946A
:1038D0009F214EC01123C9F38C2F8F710E94C021EC
:1038E00047C0112329F08C2F8F710E948A2140C07C
:1038F0000E9485213DC0112349F0CF718C2F0E9479
:103900009F2163E08C2F0E940B2332C081E00E9434
:103910001423023068F182E00E94142329C011238D
:1039200031F0002391F28D2F0E940F1921C0002346
:1039300099F2D93349F4FFEF27EE83E0F1502040AC
:103940008040E1F700C000008D2F0E94191A10C0BE
:103950004C2F4F706D2FC7010E949F080E94B0200E
:1039600014C04C2F4F706D2FC7010E94A2080DC0CC
:1039700098E0B91631F0B91640F086EF8B0D823021
:1039800020F40E94C8170E94F506DD20E1F00E9495
:10399000072380FD18C0F70112820E9401230E94B4
:1039A0009F21C7010E94EF1C0E940123DF91CF914C
:1039B0001F910F91FF90EF90DF90BF90AF909F907D
:1039C0008F900C94C021DF91CF911F910F91FF90A8
:1039D000EF90DF90BF90AF909F908F9008950F93DE
:1039E0001F93CF93DF93EC01988189812B813C81D8
:1039F000232B31F08F3F31F481E09F3F19F403C056
:103A000081E001C080E080FD13C0CE010E941D074F
:103A1000882371F0688179818A810E94DE228C017D
:103A20000E943C220E942D21B801CE010E948F1AD3
:103A3000DF91CF911F910F9108950E9485230E94DD
:103A400095238091A2049091A3040E9457240E9480
:103A500032230E9405270E94632680E090E00E94A6
:103A6000EA1780E090E00C9400180E9475230C94F3
:103A70001D1D0E94D322E92FE295EF704E2F50E0DA
:103A8000FA013297EE30F105B0F4E059FF4F0C9493
:103A90002E30803F91F018F4803E68F40EC0843FD1
:103AA00051F40BC0803E48F0813F29F406C093FBDF
:103AB000882780F9089580E0089581E00895CF93E4
:103AC000DF9300D000D01F92CDB7DEB70F900F90DC
:103AD0000F900F900F90DF91CF910895CF93DF93C8
:103AE00000D000D000D0CDB7DEB726960FB6F89440
:103AF000DEBF0FBECDBFDF91CF9108951F93CF934F
:103B0000DF93C091F00516E08091F105C81799F098
:103B1000D0E01C9FF0011D9FF00D1124EE50FA4FD4
:103B20004081518162817381848195810E946E1DE3
:103B30002196C770E9CFDF91CF911F9108954091F1
:103B400022065091230660912406709125068091EB
:103B50002606909127060C946E1DCF938091270620
:103B600082958F7009F05FC080912406882309F444
:103B70005AC08091F005B091F10570912206A09194
:103B80002306409125065091260691E07F3F09F0DB
:103B900090E0692FC6E08B1709F445C04115510527
:103BA00021F0AF3F21F020E003C021E001C0262F2B
:103BB00090E020FD35C0C89FF001C99FF00D112491
:103BC000EE50FA4F21812A132BC02081271328C0E1
:103BD0002281211125C0238134812417350710F457
:103BE00021503109241B350B283C3105C8F42091A4
:103BF00027062F7020612093270626E0289FF001DA
:103C0000299FF00D1124E950FA4F80818F70806157
:103C1000808382E296E00E94EF1CCF910C947E1D7F
:103C200001968770B8CFCF910895AF92BF92CF928F
:103C3000DF92EF92FF920F931F93CF93DF93CDB755
:103C4000DEB761970FB6F894DEBF0FBECDBF8C0113
:103C500085E0F801DE011D9601900D928A95E1F74D
:103C6000D8014C9111965C9111971296EC9030917D
:103C700022066091230680912506909126060097E2
:103C800031F06F3F31F421E03F3F19F403C021E0F0
:103C900001C020E0B22FB170BB2E20FD60C1F80141
:103CA000C380D480A0902406AA2009F4EEC02091FD
:103CB0002706C816D90628F0D601A81BB90BCD01D6
:103CC00004C0809590958C0D9D1DFF24F394883C35
:103CD000910580F0F12C207F09F09CC07C2DD98AC1
:103CE000C88A6E2D89890E945F1D82E296E00E943B
:103CF000EF1C2DC1822F807F09F054C0561314C0D1
:103D0000431312C0FE2CE1100FC02F7020612093CE
:103D100027060E949F1D82E296E00E94EF1C809180
:103D20002706F80185835CC1CD2831F05F3F31F46F
:103D300081E04F3F19F403C081E001C080E080FDC5
:103D400003C081E08E2502C080E090E0F82FF17082
:103D5000FF2E80FF1CC08091F0052091F10536E018
:103D6000821709F41AC190E0389FF001399FF00DD5
:103D70001124EE50FA4F6181561306C0608146133C
:103D800003C06281E61203C001968770E9CFFE2C62
:103D9000EE2009F425C180912706816080932706D3
:103DA000F12C1EC1561309C0431307C0E11005C012
:103DB00080912706F8018583A4C04D875E878D8595
:103DC0009E850E94391D882379F1EE2069F12091AA
:103DD0002706822F82958F7090E0029774F0809171
:103DE00022069091230698878F831986DB86CA86E0
:103DF0002C87CE0107960E94EF1C86E0F801A2E214
:103E0000B6E001900D928A95E1F70E94AD1D0E94E7
:103E10009F1D0DC0561771F04D875E878D859E855D
:103E20000E94391D81111AC0C8010E94EF1CFF2495
:103E3000F394D6C04313F0CFE110EECF8091270664
:103E4000F8018583C8010E94EF1C86E0E2E2F6E0FB
:103E5000DF011D928A95E9F7FA2CC2C0EE2021F30A
:103E600020912706822F82958F7090E002972CF286
:103E700080912206909123069A8389831B82DD829A
:103E8000CC822E83CE010196B6CFC816D90628F073
:103E9000F601E81BF90BCF0104C0809590958C0DBD
:103EA0009D1D883C910548F0F12C7C2DD98AC88A4B
:103EB0006E2D89890E945F1D4AC0FE2CEE2009F4F8
:103EC000B3CF561333C0431331C02091270620FDD2
:103ED00024C0822F82958F70482F50E041155105E4
:103EE000E1F0D80115962C9315974F30510549F004
:103EF0008F5F982F9295907F822F8F70892B1596C8
:103F00008C93C8010E94EF1C86E0F801A2E2B6E0A3
:103F100001900D928A95E1F73DC086E0F801A2E29A
:103F2000B6E001900D928A95E1F75AC04D875E8701
:103F30008D859E850E94391D81115FCF8091270656
:103F4000816080932706C8010E94EF1C49C0E2E20D
:103F5000F6E086E0DF011D928A95E9F71BC0EE20AE
:103F600009F462CF4D875E878D859E850E94391D3D
:103F7000F82E882309F458CF86E0F801A2E2B6E0D3
:103F800001900D928A95E1F782E296E00E9409196C
:103F90000E94AD1D0E949F1D23C04D875E878D85A9
:103FA0009E850E94D322292F22952F70223028F43B
:103FB0009F7039F0811105C00BC0243028F49F7028
:103FC00049F4805E883020F0C8010E94EF1CBF2CAD
:103FD000FB2C06C0D80115969C91907F91F7F8CFE5
:103FE0008F2D61960FB6F894DEBF0FBECDBFDF9167
:103FF000CF911F910F91FF90EF90DF90CF90BF90E6
:10400000AF9008951F93CF93DF93CDB7DEB72C9772
:104010000FB6F894DEBF0FBECDBF4F8358876987B8
:104020007A878B879C87CE0107960E94151E88236E
:10403000D1F09F8188852A853B85232B31F08F3FE6
:1040400031F481E09F3F19F403C081E001C080E0BA
:1040500080FD47C04F81588569857A858B859C8511
:104060000E946E1D3EC086E0FE013796DE0111966D
:1040700001900D928A95E1F7FF81E8856A857B853D
:104080006115710531F0EF3F31F481E0FF3F19F424
:1040900003C081E001C080E080FD23C02091F105D4
:1040A00030E0C9010196877099274091F00550E0F2
:1040B00084179507F1F1F983EA837D836C8396E099
:1040C000929FD001939FB00D1124AE50BA4FFE01C4
:1040D000319601900D929A95E1F78093F1050E9437
:1040E0007E1D16E08091F0059091F105891771F120
:1040F000189FC00111248E509A4F0E94151E8823CC
:1041000029F1E091F0051E9FF0011124EE50FA4FC5
:104110004081518162817381848195810E946E1DED
:104120008091F00590E00196877099278093F005C3
:10413000D9CF0E94351D1092F1051092F005E2E2F0
:10414000F6E086E0DF011D928A95E9F72C960FB61E
:10415000F894DEBF0FBECDBFDF91CF911F910895C0
:10416000EF92FF920F931F93CF93DF938C01892BD4
:1041700009F46CC0F12CEE24E394E8012196F801D7
:104180008491843740F4843008F051C0813081F04C
:10419000823019F15BC0853709F444C0A8F19CE76F
:1041A000980F903708F052C08F770E94191A41C0BB
:1041B0000E5F1F4FFE01849190E2980F983050F4EB
:1041C0008770FE2D01C0FF0F8A95EAF78F2F0E949E
:1041D000882314C00E940F192DC00E5F1F4FFE01CF
:1041E000849190E2980F983060F48770FE2D01C0A2
:1041F000FF0F8A95EAF78F2F0E948E230E943223A9
:1042000019C00E94191A16C00E5F1F4FFE01C491FB
:10421000CC2381F08FE99FE00197F1F700C0000007
:10422000C150F6CF0E5F1F4FFE01F49003C00E94F5
:104230000F198E018F2D882309F49FCFEFE9FFE03E
:104240003197F1F700C000008150F5CFDF91CF9199
:104250001F910F91FF90EF900895089508950C9489
:104260002E210C942F210E94312160934A067093D5
:104270004B0680934C0690934D060C941D1D0C9498
:1042800033210F931F9300914A0610914B06209102
:104290004C0630914D06602B712B822B932B1F9176
:1042A0000F910C9433210F931F9300914A061091A4
:1042B0004B0620914C0630914D06602371238223DA
:1042C00093231F910F910C9433210F931F9300910F
:1042D0004A0610914B0620914C0630914D066027FE
:1042E0007127822793271F910F910C9433210C94EF
:1042F000E0050E94772160934606709347068093FD
:104300004806909349060C941D1D60E070E0CB01B7
:104310000C9479210F931F9341E050E060E070E02E
:104320008A019B0104C0000F111F221F331F8A95B1
:10433000D2F7C901B8011F910F910C9479210F9305
:104340001F9341E050E060E070E004C0440F551F4F
:10435000661F771F8A95D2F780914606909147068F
:10436000A0914806B09149068A019B01082B192BA0
:104370002A2B3B2BC901B8011F910F910C94792175
:104380000F931F9341E050E060E070E004C0440FE1
:10439000551F661F771F8A95D2F7409550956095F7
:1043A00070958091460690914706A0914806B0917D
:1043B00049068A019B01082319232A233B23C901AB
:1043C000B8011F910F910C9479210F931F9341E035
:1043D00050E060E070E004C0440F551F661F771F77
:1043E0008A95D2F78091460690914706A09148069B
:1043F000B09149068A019B01082719272A273B27E4
:10440000C901B8011F910F910C9479210F931F934B
:1044100000914606109147062091480630914906C2
:10442000602B712B822B932B1F910F910C94792170
:104430000F931F930091460610914706209148065E
:104440003091490660237123822393231F910F919A
:104450000C9479210F931F93009146061091470603
:1044600020914806309149066027712782279327BB
:104470001F910F910C94792108952CE0929F800D4B
:104480001124E82FE695E695E695877051E001C086
:10449000550F8A95EAF785E0E89FF0011124E85D61
:1044A000F94F20E030E070E04081CB01022E02C0E5
:1044B000969587950A94E2F78170819584278523E4
:1044C000842781932F5F3F4F2530310569F7089589
:1044D0002CE0929F800D1124682F66956695669555
:1044E000982F977085E0689FB001112440E050E05C
:1044F00080E0FB01E40FF51FE85DF94F208130E01B
:10450000092E02C0369527950A94E2F721703327C9
:10451000042E01C0220F0A94EAF7822B4F5F5F4FEF
:104520004530510531F70895CF92DF92EF92FF9217
:104530000F931F93CF93DF938C01C0904606D090CA
:104540004706E0904806F090490680914A0690910F
:104550004B06A0914C06B0914D06C82AD92AEA2AEA
:10456000FB2ACFE1D0E0D701C6010C2E04C0B695DE
:10457000A795979587950A94D2F780FD04C0219757
:1045800090F780E007C0B8018C2F0E94BE08019709
:10459000B1F38C2FDF91CF911F910F91FF90EF908E
:1045A000DF90CF900895CF93DF93EC010E94942287
:1045B000BE010E94BE08DF91CF9108951F93CF9353
:1045C000DF93EB019091EF05992321F0CB010E943D
:1045D000D32213C0882349F0CB010E949422182FC4
:1045E000682FCE010E943D2204C0CB010E946822A8
:1045F000182FBE01812F0E94BE08DF91CF911F911D
:10460000089580914E0685958595859508958091AC
:104610004E068770089598E0899F90011124262BFB
:1046200020934E060C949F2120914E068095822364
:1046300080934E06982F977069F430E0482F082E2B
:10464000000C550B2417350729F085958595859520
:104650000C94C021089590914E06977081E009F462
:1046600080E00895E091A204F091A30480915A069D
:104670008083E091A204F091A30490818091590677
:10468000892B8083E091A204F091A3049081809112
:104690005806892B808380914F06882381F0E09112
:1046A000A204F091A3049081892B80838091A204BD
:1046B0009091A3040E941F24811110924F068091B3
:1046C000A2049091A3040C94D41780915A060895E3
:1046D00090915A06892B80935A060895809590915F
:1046E0005A06892380935A06089510925A0608950F
:1046F00090915906892B8093590608958095909141
:1047000059068923809359060895109259060895F1
:1047100090915806892B8093580608958095909122
:1047200058068923809358060895109258060895D4
:1047300080934F06089510924F06089580914F067A
:10474000089580E090E00E94983021E08D3E9E4FD9
:1047500009F020E0822F089582E090E00C949030E0
:1047600083E090E00C949030682F83E090E00C940C
:104770009E3084E090E00C949030682F84E090E0CC
:104780000C949E3087E090E00C949030682F87E086
:1047900090E00C949E30AB01BC018FE090E00C9453
:1047A000AF30AB01BC0183E190E00C94AF3060E02E
:1047B00070E0CB010C94D12360E070E0CB010E944B
:1047C000CB230C94D7236DEE7EEF80E090E00E9427
:1047D000BB3060E082E090E00E949E3060E083E0C9
:1047E00090E00E949E3010924A0610924B06109262
:1047F0004C0610924D0660E084E090E00E949E30EE
:1048000060E085E090E00E949E3060E086E090E00D
:104810000E949E306FEF87E090E00E949E3040E063
:1048200050E0BA0188E090E00E94AF3060E08DE097
:1048300090E00E949E300C94DC230C94E323FC0156
:1048400031969C01285F3F4F80E0919191118F5FDD
:10485000E217F307D1F708959C01FC0132969FEF10
:1048600080E04191461789F09F3F19F4411101C042
:10487000982F8F5F8630A9F79F3F39F0F901E90F34
:10488000F11D97FDFA956283089508959C012A5FB2
:104890003F4FFC014281461301C0128201968217EC
:1048A0009307B9F708950C942C240C944624FC012A
:1048B000319608961192E817F907E1F708958BE011
:1048C00083BF8AEF8CBF82E089BF08952FB7F89429
:1048D0008091060790910707A0910807B0910907FA
:1048E0002FBF0895CF92DF92EF92FF920F931F9305
:1048F0002FB7F89440910607509107076091080779
:10490000709109072FBF6A017B01EE24FF248C01FF
:1049100020E030E0C016D106E206F30610F4415064
:1049200051099A01281B390BC9011F910F91FF9062
:10493000EF90DF90CF90089578941F920F920FB66A
:104940000F9211248F939F93AF93BF93809106078B
:1049500090910707A0910807B09109070196A11D42
:10496000B11D8093060790930707A0930807B093A3
:104970000907BF91AF919F918F910F900FBE0F903C
:104980001F90189560E081E090E00E94C13087E0C0
:1049900090EBDC0180934F0790935007A093510751
:1049A000B09352079CE088E10FB6F894A89581BDBA
:1049B0000FBE91BDFFCF0E94A123811102C00E94B2
:1049C0001D240E94AC2380935B060E94B92390E0D3
:1049D00090930B0780930A070E94B023682F70E022
:1049E00080E090E00C943F2180915E0680FF0BC038
:1049F0006091A70485E0689FB001112475956795C3
:104A0000759567952BC081FF09C06091A70485E06B
:104A1000689FB00111247595679520C082FF07C07B
:104A20006091A70485E0689FB001112417C09091A0
:104A30005F069923D1F06091A604961788F720911C
:104A4000A70485E0289F90011124929FA001939FC5
:104A5000500D112470E0CA010E941A3060387105AF
:104A600040F46115710519F406C065E070E0862F09
:104A700008958FE7089581E0089580915E0680FF94
:104A800008C06091A50470E0759567957595679568
:104A900021C081FF06C06091A50470E075956795FF
:104AA00019C082FF04C06091A50470E010C090910D
:104AB0005F06992399F06091A4049617A0F780915E
:104AC000A504899FC001112470E00E941A3060384B
:104AD000710540F46115710519F406C061E070E0DC
:104AE000862F08958FE7089581E00895803F21F48F
:104AF0000E94F424819504C0813F29F40E94F4248B
:104B0000809362060895823F21F40E94F4248195E7
:104B100004C0833F29F40E94F42480936106089521
:104B2000893F19F40E943D2505C08A3F31F40E9457
:104B30003D2581958093630608958B3F21F40E9463
:104B40003D25819504C08C3F29F40E943D2580932A
:104B500064060895843F21F480916006816017C047
:104B6000853F21F480916006826011C0863F21F468
:104B70008091600684600BC0873F21F480916006BD
:104B8000886005C0883F31F4809160068061809321
:104B9000600608958D3F21F480915E0681600BC010
:104BA0008E3F21F480915E06826005C08F3F29F41C
:104BB00080915E06846080935E060895803F39F49C
:104BC0008091620687FF6CC01092620669C0813FC7
:104BD00029F4809162061816BCF362C090916106B8
:104BE000823F29F497FF5CC01092610659C0833F51
:104BF00019F41916CCF354C0893F41F4809163062F
:104C000018160CF04DC0109263064AC08A3F29F472
:104C10008091630687FF44C0F6CF8B3F39F48091C3
:104C2000640687FF3DC0109264063AC08C3F29F4A9
:104C3000809164061816BCF333C0843F21F4809140
:104C400060068E7F17C0853F21F4809160068D7FBE
:104C500011C0863F21F4809160068B7F0BC0873F97
:104C600021F480916006877F05C0883F31F48091F0
:104C700060068F7E8093600613C08D3F21F4809183
:104C80005E068E7F0BC08E3F21F480915E068D7F85
:104C900005C08F3F29F480915E068B7F80935E066E
:104CA0008091610681110EC08091620681110AC057
:104CB00080916306811106C080916406811102C053
:104CC00010925F06089580E696E00E94DF170E942A
:104CD000662490935D0680935C0608951F93CF939E
:104CE000DF9380915C0690915D060E947224AC0176
:104CF00090915F06992321F02091A80430E006C02E
:104D00002091A9048AE0289F90011124421753079B
:104D100008F477C080916106C0916206D091630665
:104D200010916406811107C0C11167C0D11165C01F
:104D3000111163C066C09F3F19F09F5F90935F069B
:104D4000181624F40E94F424809361068091610671
:104D500087FF05C00E94F4248195809361061C168C
:104D600024F40E94F424809362068091620687FFF7
:104D700005C00E94F42481958093620630916106FB
:104D80003323C1F0209162062223A1F045EB3403C6
:104D9000C0011124892F911101C081E08093610627
:104DA00035EB2303C0011124892F911101C081E04B
:104DB000809362061D1624F40E943D2580936306AD
:104DC0008091630687FF05C00E943D2581958093F1
:104DD0006306111624F40E943D2580936406809199
:104DE000640687FF05C00E943D2581958093640677
:104DF000DF91CF911F910C9463269F3F09F09DCFC7
:104E0000AECFDF91CF911F910895E0E6F6E085E007
:104E1000DF011D928A95E9F710925F0610925E06F7
:104E20000895833081F128F4813059F08230D1F037
:104E30000895853009F449C0B8F1863009F456C0A8
:104E400008958091A904262F30E0280F311D2F3FAF
:104E5000310524F4680F6093A90408958FEF8093BF
:104E6000A90408958091A804262F30E0280F311D51
:104E70002F3F310524F4680F6093A80408958FEF45
:104E80008093A80408958091A704262F30E0280F6E
:104E9000311D2F3F310524F4680F6093A704089556
:104EA0008FEF8093A70408958091A604262F30E009
:104EB000280F311D2F3F310524F4680F6093A6049D
:104EC00008958FEF8093A60408958091A504262F5E
:104ED00030E0280F311D2F3F310524F4680F609317
:104EE000A50408958FEF8093A50408958091A404EC
:104EF000262F30E0280F311D2F3F310524F4680F95
:104F00006093A40408958FEF8093A40408958330E0
:104F100011F128F4813049F0823091F00895853004
:104F200081F120F18630C1F108958091A9046817BC
:104F300020F4861B8093A90408951092A904089573
:104F40008091A804681720F4861B8093A804089514
:104F50001092A80408958091A704681720F4861B76
:104F60008093A70408951092A70408958091A60441
:104F7000681720F4861B8093A60408951092A60457
:104F800008958091A504681720F4861B8093A504DA
:104F900008951092A50408958091A404681720F440
:104FA000861B8093A40408951092A40408950F937F
:104FB0001F9341E050E060E070E08A019B0104C073
:104FC000000F111F221F331F8A95D2F7C901B801A4
:104FD0000E943F211F910F910C94351D8732D8F507
:104FE0008E3108F075C08E3009F45FC098F48730B8
:104FF00009F44DC08B3009F46EC0863009F06FC0E3
:1050000080915B06817F8E7F80935B0681E0809339
:1050100066060895863109F45EC068F4803109F0AF
:105020005EC080915B0683FB222720F991E09227E6
:1050300090FB83F943C0893109F44DC08B3109F0ED
:105040004EC080915B0681FB222720F991E09227D8
:1050500090FB81F933C08833F1F138F48932E9F1FA
:105060008533D9F18732C9F13AC08334B1F120F4E4
:105070008A33A8F189532DC0883489F50E94351DE3
:105080000E94480F0E94F7060E94C22424C080910B
:105090005B06982F9095917090FB80F980935B064A
:1050A000911119C0897F877F10C080915B0682FBB8
:1050B000222720F991E0922790FB82F980935B06EA
:1050C000992349F080915B06816080935B0603C061
:1050D0008D510E94D72781E0089580E0FACF80E0CB
:1050E000089580E008950C9471288E518A3030F430
:1050F000E82FF0E0E35CFA4F8081089580E00895A6
:10510000CF93C82F80916606813069F018F0823005
:10511000C9F183C0E091A204F091A304808182329E
:1051200009F07DC007C0E091A204F091A304808142
:10513000823261F48C2F0E947328811104C08C2F5D
:105140000E94EE271DC081E090E01AC08C2F0E94C3
:105150007128811114C0C43179F048F4CB3079F052
:10516000C03109F060C082E08093660608C0C93291
:1051700019F0C83321F057C01092660654C081E080
:10518000817053C0C93289F118F5C43171F1B0F49E
:10519000C73009F046C08EE18093A90482E3809372
:1051A000A8048AE08093A70484E18093A60488E0A1
:1051B0008093A50488E28093A40433C082EE8C0F10
:1051C000863078F58C2F0E9475288093650629C05B
:1051D000CE34E9F020F4CB3421F56AE013C0C135B8
:1051E00079F0C235F1F461E00DC080916506882345
:1051F00019F01092650615C081E08093660615C00F
:1052000061E006C0809165060E9411270AC06AE02D
:10521000809165060E94872704C01092660680E090
:1052200004C081E002C080E0ABCFCF9108950E941E
:1052300066248C010E9418180E940C2A0E94C31731
:105240000E94DC2B8B9A80E0815041F0A895EFE919
:10525000FFE03197F1F700C00000F6CF8B9878940B
:10526000C0E080912607882331F0109226070E9423
:1052700066248C0109C0C8010E947224069710F0B0
:10528000C1E0EFCFC111EDCF0E94CD2A80912C0754
:10529000882329F08091170784FD0E941E180E9420
:1052A000C029DECF8091F9060895CF93DF9300D017
:1052B0001F92CDB7DEB72091690630916A06281794
:1052C000390789F090936A068093690623E0298361
:1052D0009B838A838091430784FF05C063E0CE01EE
:1052E00001960E94C92A0F900F900F90DF91CF91E5
:1052F0000895CF93DF9300D01F92CDB7DEB72091F2
:105300006706309168062817390789F09093680678
:105310008093670622E029839B838A8380914307D9
:1053200084FF05C063E0CE0101960E94C92A0F9058
:105330000F900F90DF91CF910895CF93DF9300D01E
:1053400000D000D0CDB7DEB7FC0181E0898395E0C5
:10535000DE01129601900D929A95E1F78091430734
:1053600084FF05C066E0CE0101960E94C92A2696F8
:105370000FB6F894DEBF0FBECDBFDF91CF91089579
:10538000CF93DF93CAE0D0E08091170784FF18C065
:1053900080917606909177069817E1F028E0829F39
:1053A000C001112468E08858994F0E94C52A809155
:1053B000760690E001968F709927809376060AC052
:1053C0000E94CD2A8FE99FE00197F1F700C000000D
:1053D0002197D1F6DF91CF910895FC01A091770636
:1053E000B0E09D012F5F3F4F2F70332780917606ED
:1053F000821771F083E0AA0FBB1F8A95E1F7A858C6
:10540000B94F98E001900D929A95E1F720937706B5
:105410000E94CD2A0C94C0298AEA94E00895FC01E8
:10542000808180768032B1F58181813041F48EE6D1
:1054300096E0909328078093270788E008958230AC
:1054400041F488EF96E0909328078093270781E046
:1054500008958A3021F483818093F8061BC0893037
:10546000C9F482819381811522E0920731F484810D
:105470009581892B89F482E004C08130934061F4E6
:1054800081E080936D068681978190936C0680936E
:105490006B0602C080E008958FEF0895FC018091B3
:1054A0006B0690916C06892B99F090916D06913066
:1054B00051F0923069F480818093F90610926C0665
:1054C00010926B0603C08B9A0E94C22481E008955B
:1054D0008FEF0895FC018381813261F08232D1F037
:1054E000823071F58AE294E0909328078093270731
:1054F0008BE308958281882329F0813009F585E5C1
:1055000094E002C08CE394E09093280780932707EF
:1055100089E0089584819581009751F0019781F485
:1055200085E694E0909328078093270784E8089500
:1055300089EE94E0909328078093270780E40895EC
:1055400080E008951F93CF93DF93162FEA012881FF
:1055500024FF05C0398128E82327298302C02AE5D2
:105560002883FC019E012E5F3F4FD901912F81912D
:105570008D939150E1F7612FC9010E9407031C5FD1
:105580001883DF91CF911F91089547E157E00C9464
:10559000A22A43E457E00C94A22ACF93DF936091B0
:1055A0002907635067FDB1C080912507CCE0D0E0AA
:1055B000C81BD109C35DD84F809124078D3209F0F3
:1055C00092C0683009F09FC083EC80930C078AE595
:1055D0008093B5041092FA068881807621F0CE017E
:1055E0000E940F2A6DC09A8110921507898181113E
:1055F00006C01092160725E137E082E05CC08530D6
:1056000019F490932A0754C08630D1F58B818130EC
:1056100041F489E295E0909328078093270782E17F
:105620002BC0823021F18330F1F4911108C083E561
:1056300095E0909328078093270784E01DC0913060
:1056400041F489E495E090932807809327078AE046
:1056500013C0923081F48BE395E0909328078093F8
:1056600027078EE009C0813211F0823221F4CE0189
:105670000E946A2A01C080E090E49093FA0620C05C
:10568000883079F0893019F490932C0711C08A3052
:1056900059F08B3069F48BE48093180780934407AA
:1056A00007C02CE237E002C025E137E081E003C00B
:1056B00025E137E080E0309328072093270709C0D1
:1056C0008F3F39F4988197FD8E8190E89093FA0688
:1056D00007C09F81911104C09E81981708F4892FFB
:1056E0008093B40410C08091FA0687FF0CC0CE01ED
:1056F0000E944E2A8F3F21F48EE18093B50403C0AF
:1057000081111092B404109229078091B50484FF8E
:1057100046C08091B4048F3F09F441C0C82F89303E
:1057200008F0C8E08C1B8093B40490910C0788E8C3
:10573000892780930C07CC2329F18091270790912A
:1057400028072091FA0626FF0AC0ADE0B7E0FC0169
:105750002C2F34913D9331962150D9F708C0DC01AC
:10576000EDE0F7E02C2F3D9131932150E1F72FEF41
:105770002C0F30E02F5F3F4F820F931F909328072D
:10578000809327076C2F8DE097E00E940703CC5F82
:10579000CC3019F08FEF8093B404C093B50484E14A
:1057A00090B39C7031F48150D9F710922A0710926F
:1057B0002307DF91CF91089585B7886085BF8BB7A8
:1057C00080688BBFA7E1B7E08BE411968C931197AB
:1057D000E3E4F7E081838AE58C9380830895505851
:1057E000BB27AA270E94072C0C94E32D0E94D52DDD
:1057F00038F00E94DC2D20F039F49F3F19F426F494
:105800000C94D22D0EF4E095E7FB0C94BE2DE92FFD
:105810000E94F42D58F3BA1762077307840795079F
:1058200020F079F4A6F50C94162E0EF4E0950B2ECC
:10583000BA2FA02D0B01B90190010C01CA01A001E2
:105840001124FF27591B99F0593F50F4503E68F13D
:105850001A16F040A22F232F342F4427585FF3CF7E
:10586000469537952795A795F0405395C9F77EF44F
:105870001F16BA0B620B730B840BBAF09150A1F098
:10588000FF0FBB1F661F771F881FC2F70EC0BA0F1E
:10589000621F731F841F48F4879577956795B795A6
:1058A000F7959E3F08F0B0CF9395880F08F09927A1
:1058B000EE0F9795879508950E949A2D08F481E040
:1058C00008950E94752C0C94E32D0E94DC2D58F055
:1058D0000E94D52D40F029F45F3F29F00C94BE2D95
:1058E00051110C94172E0C94D22D0E94F42D68F3B4
:1058F0009923B1F3552391F3951B550BBB27AA2789
:1059000062177307840738F09F5F5F4F220F331FC2
:10591000441FAA1FA9F335D00E2E3AF0E0E832D08A
:1059200091505040E695001CCAF72BD0FE2F29D08D
:10593000660F771F881FBB1F261737074807AB075F
:10594000B0E809F0BB0B802DBF01FF2793585F4FD4
:105950003AF09E3F510578F00C94BE2D0C94172E12
:105960005F3FE4F3983ED4F3869577956795B795B6
:10597000F7959F5FC9F7880F911D9695879597F9C1
:105980000895E1E0660F771F881FBB1F621773073A
:105990008407BA0720F0621B730B840BBA0BEE1F4F
:1059A00088F7E09508950E94DA2C6894B1110C9460
:1059B000172E08950E94FC2D88F09F5798F0B92F5C
:1059C0009927B751B0F0E1F0660F771F881F991F34
:1059D0001AF0BA95C9F714C0B13091F00E94162E92
:1059E000B1E008950C94162E672F782F8827B85FA2
:1059F00039F0B93FCCF3869577956795B395D9F78C
:105A00003EF490958095709561957F4F8F4F9F4F95
:105A10000895E89409C097FB3EF4909580957095A1
:105A200061957F4F8F4F9F4F9923A9F0F92F96E9EA
:105A3000BB279395F695879577956795B795F1115F
:105A4000F8CFFAF4BB0F11F460FF1BC06F5F7F4FFC
:105A50008F4F9F4F16C0882311F096E911C077230E
:105A600021F09EE8872F762F05C0662371F096E817
:105A7000862F70E060E02AF09A95660F771F881FE6
:105A8000DAF7880F9695879597F908950E94D52D96
:105A900020F019F00E94DC2D50F40C94D22D0C94BF
:105AA000172EE92F0E94F42D88F35523B1F3E7FB5D
:105AB0006217730784079507A8F189F3E92FFF2779
:105AC00088232AF03197660F771F881FDAF7952F02
:105AD0005527442332F091505040220F331F441F6A
